:020000040800F2
:10000000300F00209D010008772100085D1E0008C8
:100010007521000889030008153800080000000059
:10002000000000000000000000000000B72B0008E6
:100030002F0400080000000099210008212D00086D
:10004000B7010008B7010008B7010008B7010008B0
:10005000B7010008B7010008B7010008B7010008A0
:10006000B7010008B7010008B7010008B701000890
:10007000B9030008C5030008D1030008DD03000828
:10008000E9030008F5030008B7010008B7010008FC
:10009000B7010008B7010008B7010008B701000860
:1000A000B7010008B7010008B7010008B701000850
:1000B000B7010008B7010008B7010008B701000840
:1000C000B7010008B7010008B7010008B701000830
:1000D000B7010008F1370008FD37000809380008AB
:1000E000B7010008B7010008B7010008B701000810
:1000F000B7010008B7010008B7010008B701000800
:10010000B7010008B7010008B7010008B7010008EF
:10011000B7010008B7010008B7010008B7010008DF
:10012000B7010008B7010008B7010008B7010008CF
:10013000B7010008B7010008B7010008B7010008BF
:10014000B7010008B7010008B7010008B7010008AF
:10015000B7010008B7010008B7010008B70100089F
:10016000B7010008B7010008B7010008B70100088F
:10017000B7010008B7010008B7010008000000003F
:10018000B7010008B7010008DFF80CD000F0EAF86A
:1001900000480047713C0008300F002006488047A7
:1001A00006480047FEE7FEE7FEE7FEE7FEE7FEE75C
:1001B000FEE7FEE7FEE7FEE7B92D0008890100082B
:1001C0002DE9F05F0546002092469B46884606468C
:1001D000814640241BE0284641464746224600F01F
:1001E000B0F853465A46C01A914110D311461846EA
:1001F000224600F097F82D1A67EB01084F46224679
:100200000120002100F08EF817EB00094E41201E5E
:10021000A4F10104DFDC484631462A46434600F09B
:1002200000B830BCBDE8C09F40EA01039B0703D083
:1002300009E008C9121F08C0042AFAD203E011F825
:10024000013B00F8013B521EF9D27047D2B201E0E7
:1002500000F8012B491EFBD270470022F6E710B5CB
:1002600013460A4604461946FFF7F0FF204610BD24
:1002700030B505462A460B4612F8010B13F8014B20
:1002800008B1A042F8D01CB1002802D06D1CF1E7E3
:10029000284630BD421C10F8011B0029FBD1801AF2
:1002A0007047034611F8012B00F8012B002AF9D101
:1002B0001846704770B50F4D00B92868002412E049
:1002C0000A4602E09E4203D0521C1378002BF9D15B
:1002D000DAB2224305D02BB124B1002100F8011B72
:1002E00004E00446401C0678002EE9D12860204630
:1002F00070BD00003800002030B50B4601460020DC
:100300002022012409E021FA02F59D4205D303FAD7
:1003100002F5491B04FA02F52844151EA2F1010258
:10032000F1DC30BD202A04DB203A00FA02F1002083
:1003300070479140C2F1200320FA03F31943904023
:100340007047202A04DB203A21FA02F0002170478E
:1003500021FA02F3D040C2F120029140084319462D
:1003600070470000064C074D06E0E06840F00103CE
:1003700094E8070098471034AC42F6D3FFF708FF23
:10038000E040000800410008FEE7000070B5094D9C
:10039000FF231A4605F5807606E000BF10F8014BF2
:1003A00054402A5D5A40335D491EF7D242EA032089
:1003B00070BD0000F43D0008014800F061B8000085
:1003C000A4050020014800F05BB800005C05002097
:1003D000014800F055B8000084040020014800F0F6
:1003E0004FB800003C040020014800F049B800006C
:1003F000CC040020014800F043B8000014050020A0
:1004000030B590F8444004F01C050124AC40056C64
:100410006C60046863608368102B036803D0996084
:100420000068C26030BD9A600068C16030BD70472E
:10043000704710B590F825100024022903D004213C
:10044000C16301241AE001680A6822F00E020A6002
:1004500001680A6822F001020A6090F84410036CF7
:1004600001F01C02012101FA02F25A6080F8251005
:10047000002180F82410816B01B18847204610BD0F
:10048000F0B4016C0C6801680D6890F8442002F02B
:100490001C06042202FA06F3234211D06B070FD583
:1004A0000B689B0603D40B6823F004030B6090F8E1
:1004B000441001F01C018A40016C4A60016B1DE090
:1004C000022303FA06F727424FF0000C4FF0010217
:1004D00018D0AF0716D50C68A40605D40C6824F014
:1004E0000A040C6080F8252090F8441001F01C01EB
:1004F0008B40016C4B6080F824C0C16A00291AD07F
:10050000F0BC08470823B340234214D02B0712D570
:100510000B6823F00E030B6090F84410036C01F09D
:100520001C0102FA01F15960C26380F8252080F8AD
:1005300024C0416BE2E7F0BC7047000070B568B1C1
:100540002B4C036814212B4AA34209D22A4C1C4489
:10055000B4FBF1F18900C0E910210BE0012070BD6E
:10056000234C64421C44B4FBF1F1890041642049EE
:1005700008390164022180F825101C6847F6F071E3
:100580008C43D0E902152943D0E904563543294369
:1005900085692943C5692943056A294321431960AF
:1005A0008168B1F5804F19D0036C0F21934202D1BD
:1005B00052F8A83F02E00E4AA032136890F8444077
:1005C00004F01C04A1408B43136090F84430416850
:1005D00003F01C0399401368194311600021C163A3
:1005E000012280F8252080F82410084670BD000004
:1005F0000804024000000240F8FFFDBF70B5044649
:1006000090F82400002501280CD0012084F8240053
:1006100094F825600020012E06D084F824000225DD
:10062000284670BD022070BD022684F82560E06374
:100630002068066826F0010606602046FFF7E0FE07
:10064000206B00282068016802D041F00E0106E00E
:1006500021F0040101602068016841F00A01016095
:100660002068016841F001010160D9E770B50446D6
:1006700000F0F4F80546601C00D0641C00F0EEF8B1
:10068000401BA042FAD370BD2DE9F84FDFF898B1B6
:1006900000234FF0010C4FF0030A4FF00F090BF14C
:1006A000040EB9E00CFA03F4224070D04D68022D1C
:1006B00001D0122D0ED1DD0800EB8508D8F82050AE
:1006C0005E07F70E09FA07F6B5430E69BE402E43E2
:1006D000C8F8206007685E0091F804800AFA06F501
:1006E00008F00308AF4308FA06F848EA0708C0F81C
:1006F00000804F68012F05D0022F03D0112F01D0A9
:10070000122F13D1D0F80880CF6828EA0508B74027
:1007100047EA08078760D0F804800F7928EA0408C0
:10072000C7F300179F4047EA08074760D1F80480E5
:100730006FEA0807BF0706D1C76AA743C8F3C0041A
:100740009C403C43C462C468AC438D68B5402543BB
:10075000C5604C68E4005ED5344C256E45F001055B
:100760002566246E23F0030504F001040094304C48
:100770002E19B4689D072F0F09FA07F5AC43B0F1A5
:10078000904F05D02B4DA84204D101251CE042E03A
:10079000002519E0284DA84201D1022514E0274D7B
:1007A000A84201D103250FE0254DA84201D104251F
:1007B0000AE0244DA84201D1052505E0224DA842BA
:1007C00001D1062500E00725BD402543B560DBF8D3
:1007D00000405D464E689443F60300D514432C60F8
:1007E000DEF8004075464E689443B60300D51443C6
:1007F0002C600D4D08352C684E689443F60200D5E8
:1008000014432C60084D0C352C684E689443B60296
:1008100000D514432C605B1C0A6832FA03F57FF4A0
:1008200041AF00F013B80000000401400010024086
:10083000000001400004004800080048000C004887
:1008400000100048001400480018004818BCBDE81B
:10085000E08F0AB18161704781627047014800688A
:10086000704700003000002002480168491C016008
:100870007047000030000020094810B501680024CE
:1008800041F480710160032000F066F8002000F060
:1008900009F808B1012401E000F01CF8204610BD61
:1008A0000020024070B5054609484FF47A710024D3
:1008B0000068B0FBF1F000F07CFF08B1012404E017
:1008C00000222946501E00F027F8204670BD000087
:1008D00034000020094808B5016E41F001010166AD
:1008E000016E01F001010091816D41F0805181653F
:1008F000806D00F08050009008BD000000100240A4
:1009000000F01F02012191404009800000F1E02029
:10091000C0F8001170470000F0B40E4B1B680C4685
:10092000C3F30223C3F10705042D00D90425191DC3
:10093000072901D2002300E0DB1E012606FA05F19B
:10094000491E214099409E40761E16403143F0BC1E
:1009500001F012BC0CED00E0064900F00702086847
:100960004FF6FF03184040EA0220034A1043086094
:10097000704700000CED00E00000FA051649B0F5E4
:10098000007F0868C0F3412009D0022805D008681C
:1009900020F4C06040F480600860002070470128A7
:1009A000FBD0086820F4C06040F4007008600B4879
:1009B0003222006850430A4AB0FBF2F0401C00E0CB
:1009C000401E4A69520501D50028F9D14869400501
:1009D000E3D5032070470000007000403400002081
:1009E00040420F000248006800F4C06070470000F9
:1009F000007000400248016841F480710160704756
:100A0000007000402DE9F84F044600270088E54DAE
:100A10003E46010504F1200B1DD5606E78B1B0F59E
:100A2000800F11D0B0F5000F04D0B0F5400F22D0E8
:100A300001270FE0E86840F48030E8601BE0002107
:100A4000201D01F0ABFB03E00021584601F03CFC07
:100A5000070010D03E462088C00426D5A06EC0B145
:100A6000B0F1807F1AD0B0F1007F0DD0B0F1407F9F
:100A700019D0012718E0D5F88800616E20F44000F5
:100A80000843C5F88800E6E7E86840F48030E8608D
:100A900009E00021201D01F081FB03E00021584600
:100AA00001F012FC0746F7B13E46206880033AD5B4
:100AB000A86D4FF00008C00009D4A86D40F0805028
:100AC000A865A86D4FF0010800F080500090DFF895
:100AD000D8A2DAF8001041F48071CAF80010FFF7CC
:100AE000BDFE814610E0D5F88800A16E20F0407070
:100AF0000843C5F88800D8E7FFF7B0FEA0EB09006F
:100B0000022801D9032705E0DAF80000C005F3D573
:100B1000002F7CD04FEA0706B8F1000F03D0A86D74
:100B200020F08050A8652078C00707D0D5F888004D
:100B3000A16B20F003000843C5F8880020788007E7
:100B400007D5D5F88800E16B20F00C000843C5F804
:100B500088002078400707D5D5F88800216C20F060
:100B600030000843C5F888002078000707D5D5F87D
:100B70008800616C20F0C0000843C5F88800207828
:100B8000C00607D5D5F88800A16C20F44070084352
:100B9000C5F888002078800607D5D5F88800E16C74
:100BA00020F440600843C5F888002088800507D5F8
:100BB000D5F88800E16D20F440200843C5F888008E
:100BC0002088400507D5D5F88800216E20F4401014
:100BD0000843C5F888002078400607D5D5F8880076
:100BE000216D20F440500843C5F8880020780006A5
:100BF00007D5D5F88800616D20F440400843C5F85A
:100C000088002088C00509D5D5F8880000E01CE0E0
:100C1000A16D20F440300843C5F8880020884FF0CB
:100C2000006780044FF080684FD5D5F88800E16EEA
:100C300020F040600843C5F88800E06EB8423CD11F
:100C4000E86840F48010E8603FE0D5F8900010F4C8
:100C5000407015D0D4F88410814211D0D5F890009E
:100C6000D5F8901020F4407041F48031C5F8901010
:100C7000D5F8901021F48031C5F89010C5F8900097
:100C8000C00710D0FFF7EAFD074641F2883906E0B9
:100C9000FFF7E4FDC11B494501D903263CE7D5F820
:100CA00090008007F4D5D5F89000D4F8841020F493
:100CB00040700843C5F890002EE7404505D101215A
:100CC000201D01F06BFA00B106462068000317D51D
:100CD000D5F88800216F20F040600843C5F88800EF
:100CE000206FB84204D1E86840F48010E86007E063
:100CF000404505D10121201D01F050FA00B1064602
:100D00002068400317D5D5F88800616F20F0406057
:100D10000843C5F88800606FB84204D1E86840F421
:100D20008010E86007E0404505D10121201D01F059
:100D300035FA00B10646208840041AD5D5F8880057
:100D4000A16F20F040500843C5F88800A06FB0F1B3
:100D5000805F03D0B0F1005F05D00AE00221201DC2
:100D600001F01CFA03E00221584601F0ADFA00B18F
:100D700006462088000407D5D5F88800E16F20F0EA
:100D800080400843C5F888002068C00307D555F89F
:100D9000880FD4F8801020F00040084328603046C7
:100DA00000F004B8001002400070004018BCBDE81C
:100DB000E08F00002DE9F0470F46050058D03F4E68
:100DC000306800F00700B84209D2306820F0070010
:100DD00038433060306800F00700B84248D12878C6
:100DE000374CC0072CD06868032811D0022812D0D5
:100DF000216898B1490500293ADAA16821F0030178
:100E00000143A160FFF72AFD804641F2883910E0D6
:100E100021688901EFE721688903ECE78907EAE7A0
:100E2000FFF71CFDA0EB0801494502D90320BDE8EE
:100E3000F087A068696800F00C00B0EB810FEFD17B
:100E40002878800705D5A068A96820F0F00008433D
:100E5000A060306800F00700B8420BD9306820F07D
:100E6000070038433060306800F00700B84201D016
:100E70000120DCE72878400705D5A068E96820F460
:100E8000E0600843A0602878000706D5A0682969BB
:100E900020F4605040EAC100A06000F03BF8A16877
:100EA000084AC1F30311515C01F01F01C840064913
:100EB0000860BDE8F0470020FFF7F4BC00200240C6
:100EC0000010024008400008340000200548064990
:100ED00000688968054AC1F30221515C01F01F01D5
:100EE000C84070473400002000100240484000080D
:100EF0000548064900688968054AC1F3C221515C6A
:100F000001F01F01C840704734000020001002406B
:100F10004840000870B52549002318468A68CC6807
:100F200012F00C0204F00306214C4FEA640509D0CC
:100F30000C2A05D0042A26D0082A00D1284670BDE4
:100F4000012E10D10B681B0704D4D1F89430C3F3E1
:100F5000032302E00B68C3F30313164E56F8233045
:100F60007AB10C2AEBD1C86800F00302C868C0F35C
:100F70000210401C022A08D0032A09D0B3FBF0F06B
:100F800008E0184670BD204670BDB4FBF0F001E0EB
:100F9000B5FBF0F0CA68C968C2F306225043C1F33A
:100FA0004161491C4900B0FBF1F070BD00100240E6
:100FB0000024F400184000082DE9F84305007CD017
:100FC000FD4CA06800F00C06E06800F003072878EC
:100FD000C00661D576B10C2E01D1012F0AD0A869C7
:100FE0000028206878D040F001002060FFF736FC30
:100FF000804659E02068800702D5A8690028DED025
:10100000286A2168090703D5216801F0F00104E08E
:10101000D4F89410F02202EA1111884215D901F097
:10102000D7F9002849D1206840F0080020602068E6
:10103000296A20F0F000084320606068E96920F424
:101040007F4040EA0120606015E0206840F0080021
:1010500020602068296A20F0F00008432060606862
:10106000E96920F47F4040EA01206060286A01F0CD
:10107000AFF90028D6D1FFF74DFFA168CF4AC1F3E1
:101080000311515C01F01F01C840CD4908600020E8
:10109000FFF708FC00287DD12FE000BFFFF7DEFB43
:1010A000A0EB0800022876D820688007F6D52068D3
:1010B00040F008002060206801E0BBE00CE0296AF5
:1010C00020F0F000084320606068E96920F47F4068
:1010D00040EA0120606010E020F001002060FFF78E
:1010E000BDFB804606E000BFFFF7B8FBA0EB0800A1
:1010F0000228D8D820688007F6D42878C00740D0C6
:10110000082E18D00C2E01D1032F14D06868B0F52A
:10111000803F17D0B0F5A02F206817D020F4803082
:101120002060206820F4802020606868E0B1FFF72C
:1011300095FB804614E02068800322D5686800286B
:1011400078D01EE0206840F48030EDE740F4802045
:101150002060F7E7FFF782FBA0EB08006428A2D825
:1011600020688003F6D50CE0FFF778FB804605E0A9
:10117000FFF774FBA0EB0800642894D82068800374
:10118000F6D4287880073BD5042E11D00C2E04D13C
:10119000022F01E036E1A1E00AD0E86800282068CB
:1011A0001ED040F480702060FFF758FB07460CE02B
:1011B000206840050CD5E8680028C1D008E000BFD1
:1011C000FFF74CFBC01B022893D820684005F7D5D9
:1011D0006068297C20F0F85040EA016060600FE010
:1011E00020F480702060FFF739FB074605E000BF60
:1011F000FFF734FBC01B022870D820684005F7D4E5
:101200002878000729D568690028D4F8940012D0FE
:1012100040F00100C4F89400FFF720FB074604E00B
:10122000FFF71CFBC01B022858D8D4F89400800795
:10123000F6D512E0EDE020F00100C4F89400FFF7CD
:101240000DFB074605E000BFFFF708FBC01B0228A7
:1012500044D8D4F894008007F6D42878400768D59D
:10126000A06D0027C00008D4A06D40F08050A0659C
:10127000A06D012700F08050009052480168C90518
:1012800012D40168814641F480710160FFF7E6FAEB
:10129000804605E0FFF7E2FAA0EB080002281DD81F
:1012A000D9F80000C005F5D5A868012817D0052891
:1012B000D4F8900018D020F00100C4F89000D4F8C1
:1012C000900020F0040000BFC4F89000A86841F22C
:1012D0008839D0B1FFF7C2FA804611E06BE0D4F84C
:1012E000900040F00100EFE740F00400C4F89000E7
:1012F000F5E700BFFFF7B2FAA0EB080149455AD85D
:10130000D4F890008007F5D50EE0FFF7A7FA8046E5
:1013100006E000BFFFF7A2FAA0EB0801494570D82C
:10132000D4F890008007F5D41FB1A06D20F0805054
:10133000A065A86AF0B30C2E6BD00228206820F0BC
:101340008070206004D0206810F0205F47D04AE011
:10135000FFF784FA064604E0FFF780FA801B0228B4
:101360004FD820688001F7D4286BE96A0001103853
:101370000843696BAA6B0902120941EA424108431A
:10138000A98F114A490802EB4151084395F84010D2
:101390004908120102EB41610843E060206840F017
:1013A00080702060E06840F08070E060FFF756FADF
:1013B000054610E02BE024E0001002400840000841
:1013C00034000020007000400000E0FFFFF746FA04
:1013D000401B022815D820688001F7D517E0E06887
:1013E00020F00300E060E0680B490840E060FFF790
:1013F00035FA054608E000BFFFF730FA401B022827
:1014000002D90320BDE8F88320688001F4D40020CD
:10141000F8E70120F6E70000FFFFEEFE70B5044696
:1014200090F8200001281DD0012584F820500220CA
:1014300084F821002168CA2048622168532048624C
:10144000204601F019F8020022684FF000004FF02A
:10145000FF0109D05162042184F8211084F8200092
:10146000012070BD022070BD936843F010039360AB
:101470002268D36823F08003D3602268516284F825
:10148000215084F82000002070BD00002DE9F041BB
:1014900004004FF0010553D094F82100002528B92D
:1014A000002084F82000204600F050F8022084F844
:1014B00021002168CA2048622168532048622046E2
:1014C00000F0DAFFFF26042718BB206881681E4A57
:1014D00011408160216888686268A36910432269AD
:1014E0001A43104388602168E06808612068016938
:1014F000228941EA024101612068C16821F080012E
:10150000C16020688068800609D4204600F036F962
:1015100028B12068466284F82170012510E0206817
:10152000C16C21F00301C1646169E069084321686D
:10153000CA6C1043C86420684662012084F8210008
:101540002846BDE8F0810000BFFF8FFF10B586B0D0
:10155000044614216846FEF780FE1149206888423F
:101560001BD1104850F8901F41F4004140F8441935
:10157000016841F0020101600068694600F0020064
:1015800005904FF40040009002200190002002904E
:10159000039004900448FFF777F806B010BD0000F0
:1015A0000028004000100240000400482DE9F047E8
:1015B000044690F820000B46012820D04FF0010986
:1015C00084F82090022084F82100DAB19878D97844
:1015D00040EA014558781978000240EA4130054355
:1015E0002168CA204862216853204862204600F0E2
:1015F00043FF0026FF274FF0040860BB1AE00220DB
:10160000BDE8F0875878C10603D500F0EF000A3036
:101610005870D87800F023FF0504587800F01FFFB9
:1016200045EA0025987800F01AFF0543187845EA46
:101630004035D5E710480540206845602068C168FE
:1016400021F08001C1602068806880060BD42046AC
:1016500000F094F838B12068476284F8218084F85B
:1016600020600120CCE72068476284F8219084F84C
:1016700020600020C4E700003FFFFF002DE9F04795
:10168000044690F8200092460D46012815D04FF0F0
:10169000010884F82080022084F821002168CA20F3
:1016A0004862216853204862204600F0E5FEFF278B
:1016B0004FF004090026E8BB02E00220BDE8F087F5
:1016C0002068BAF1000F80684FEA406005D000281A
:1016D00017DA287800F0BAFE14E0002800DBEE707C
:1016E000287800F0BCFE0304687800F0B8FE43EAF6
:1016F0000023A87800F0B3FE0343E87843EA805063
:101700000AE0EE70A8782978EA7840EA0140697822
:10171000090241EA825108431749084021680860DC
:101720002068816821F480218160D5E903010843A4
:10173000216800E00FE08A68104388602068C16873
:1017400021F08001C1602068806880060BD42046AB
:1017500000F014F838B12068476284F8219084F8CA
:1017600020600120AAE72068476284F8218084F87D
:1017700020600020A2E700007F7F7F0070B5044654
:101780000068C16821F0A001C160FFF767F8054655
:101790004FF47A7607E000BFFFF760F8401BB042D5
:1017A00001D9032070BD2068C0688006F4D50020F0
:1017B00070BD10B5401EB0F1807F01D3012010BD77
:1017C0004FF0E02460610F21601700F0D5FC00208D
:1017D000A06107202061002010BD70477047000005
:1017E0002DE9F04102680446D0691168936810F051
:1017F0000F0F4FF000055BD003F0010601F4907766
:10180000374369D0C70707D0CF0505D50127176231
:10181000626F42F001026267820708D5DA0706D0DC
:10182000276802223A62626F42F00402626742074E
:1018300008D5DA0706D0236804221A62626F42F0E4
:101840000202626702070AD501F02002324306D085
:10185000236808221A62626F42F008026267626FB0
:10186000002A32D0800605D5880603D5216E09B13D
:1018700020468847606F000703D4206880684006D0
:1018800025D5204601F0BDFD20688168490619D59F
:10189000816821F040018160E06E98B12049816348
:1018A000E06EFEF7C6FD00280FD0E06E816B06E00B
:1018B000860611D58E060FD5216E1EE02046BDE8A6
:1018C000F04108472046FFF789FFBDE8F081204638
:1018D000FFF784FF6567F8E7C60209D55B0207D505
:1018E0004FF4801010622046BDE8F041FFF775BF4D
:1018F000030605D50B0603D5616E0029DED1E4E7AA
:101900004006E2D54806E0D51168204621F04001A6
:101910001160202184F87110656600F09DFAD4E70B
:101920002333000810B5040003D094F8710010B1FF
:1019300007E0012010BD002084F87000204600F070
:1019400027F8242084F871002068016821F0010143
:101950000160204601F08AFD0128EBD0606A10B1D9
:10196000204601F04CFC2068416821F49041416020
:101970002068816821F02A0181602068016841F0B7
:10198000010101602046BDE8104001F09CBC000050
:101990002DE9F04F87B0044614216846FEF75DFC40
:1019A0009748DFF85882D4F800C0032107220025A9
:1019B0000223802687144FF0904B4FF01009C44546
:1019C00057D1D0F860C04CF4804CC0F860C0D0F85B
:1019D00060C00CF4804CCDF814C0D0F84CC04CF072
:1019E000010CC0F84CC0C06C029500F001000590DD
:1019F000CDE903124802CDE900039846AA4669469C
:101A00005846FEF741FEDFF800B27E495846CBF853
:101A10000010C0E90185C0E90356CBF81450CBF89B
:101A20001850CBE90757FEF789FD08B1FEF700FD16
:101A3000754D7448C4F86CB048351438CBF828405C
:101A400085E80103C5E903A6C5F814A0C5F818A0E8
:101A5000C5E907A72846FEF771FD08B1FEF7E8FCC7
:101A6000A566002211462520AC62FEF755FF252011
:101A70005DE0DFF89881C4455ED1D0F858C04CF4E1
:101A8000003CC0F858C0D0F858C00CF4003CCDF869
:101A900014C0D0F84CC04CF0010CC0F84CC0C06C65
:101AA000029500F001000590CDE903120C20CDE96C
:101AB00000039846AA4669465846FEF7E5FDDFF85A
:101AC00048B150490BF1900B14315846CBF8001037
:101AD000C0E90185C0E90356CBF81450CBF8185083
:101AE000CBE90757FEF72AFD08B1FEF7A1FC464DEA
:101AF0004448C4F86CB0D8352830CBF8284085E885
:101B00000103C5E903A6C5F814A0C5F818A0C5E9E6
:101B100007A72846FEF712FD08B1FEF789FCA56667
:101B2000002211462620AC62FEF7F6FE2620FEF7C4
:101B3000E7FE07B000F072B8DFF8D480C445F8D1F2
:101B4000D0F858C04CF4802CC0F858C0D0F858C019
:101B50000CF4802CCDF814C0D0F84CC04CF0040C20
:101B6000C0F84CC0C06C029500F004000590CDE9AF
:101B700003123020CDE90003984669462548FEF758
:101B800083FD2049DFF890A028395046CAF800109C
:101B9000C0E90185C0E903560915C0E905512021B6
:101BA000CAE90717FEF7CAFC08B1FEF741FCC4F802
:101BB0006CA0CAF82840DFF860A012490AF1480A70
:101BC00050463C39C0E90356CAF81450CAF81850B8
:101BD000CAF81C508AE80203CAF82070FEF7AEFC6F
:101BE00008B1FEF725FCC4F868A0002211462720A2
:101BF000CAF82840FEF790FE272098E700380140F9
:101C000000100240580002403C0400200044004004
:101C100000480040000800485C05002030BCBDE8DA
:101C2000C08F000070B5044690F87200202839D1AA
:101C3000A9B3A2B394F87000012833D0012084F82E
:101C400070006165A4F8582000256567222084F89B
:101C50007200E16E14481346C862E16E13480863CF
:101C6000E16E13484863E06E8563666D2168324615
:101C70002431E06EFEF7C2FC84F8705020680168E1
:101C800041F4807101602068816841F00101816048
:101C90002068816841F040018160002070BDFFE74D
:101CA0000120FBE70220F9E781330008BF33000879
:101CB00037330008704770472DE9F843044690F821
:101CC00071001F4616460D4620284BD1C5B1BEB146
:101CD00094F87000012845D0012084F870004FF07E
:101CE0000008C4F87480212084F87100FEF7B6FD66
:101CF000A4F850608146A4F852604FF4805615E075
:101D00000120BDE8F8838021204601F03EFDD8B9CE
:101D1000A068B04201D12069C0B115F8010B21685B
:101D20000885B4F85200401EA4F85200B4F85200DE
:101D30004B464FF0000200970028E4D14FF04001DD
:101D4000204601F022FD30B10320DAE735F8020B1E
:101D5000C0F30800E3E7202084F8710084F8708065
:101D60000020CEE70220CCE770B5044690F8710061
:101D7000202834D181B37AB394F8700001282ED092
:101D8000012084F87000E164A4F85020A4F85220E7
:101D900000256567212084F87100A16E1148134663
:101DA000C862A16E10480863A16E10484863A06E17
:101DB00085632668E16C06F12802A06EFEF71EFC22
:101DC00021684020086284F870502068816841F0E2
:101DD00080018160002070BDFFE70120FBE7022049
:101DE000F9E70000C9330008F93300083733000869
:101DF00090F87130202B29D1B9B1B2B190F8703080
:101E0000012B23D0012380F87030C164A0F850204A
:101E1000A0F85220002141664167212280F87120FC
:101E20008268B2F5805F02D003E00120704702694A
:101E300052B1074A426680F870100068016841F0AC
:101E40008001016000207047024AF3E702207047DA
:101E50004F3700080D37000870477047FEE7000055
:101E60002DE9F04104250C2709262C461420FEF705
:101E7000FDFB01F0E9FE1420FEF7F8FB012000F065
:101E8000B1FE1420FEF7F2FB052000F0E5FE142061
:101E9000FEF7ECFB00F0FCFE1420FEF7E7FB1A480F
:101EA00000F0C0FE1420FEF7E1FB23462A4631462F
:101EB000384600F001FF1420FEF7D8FB00F022FFA7
:101EC0000920FEF7D3FBFF22C8211048FEF7BEF918
:101ED00064220E490E48FFF7A5FE6420FEF7C6FBFC
:101EE000F406012220212046FEF7B3FCC820FEF7AD
:101EF000BDFB002220212046FEF7ABFC6420FEF74C
:101F0000B5FBBDE8F08100002042C433840100200D
:101F1000D40200201D4808B5816C41F001018164A4
:101F2000806C002200F00100009011460C20FEF7AA
:101F3000F3FC0C20FEF7E4FC002211460D20FEF716
:101F4000EBFC0D20FEF7DCFC002211460E20FEF714
:101F5000E3FC0E20FEF7D4FC002211460F20FEF712
:101F6000DBFC0F20FEF7CCFC002211461020FEF710
:101F7000D3FC1020FEF7C4FC002211461120FEF70E
:101F8000CBFCBDE808401120FEF7BABC00100240AF
:101F900030B587B014216846FEF75FF91F48C16C61
:101FA00041F00401C164C16C01F004010591C16CF0
:101FB00041F08001C164C16C01F080010591C16CE8
:101FC00041F00101C164C16C01F001010591C16CD6
:101FD00041F00201C164C06C4FF0904500F0020076
:101FE0000590002220212846FEF733FC4FF40050D4
:101FF00000900B480024CDE9010469460948FEF72A
:1020000043FB202000900120CDE9010469462846C9
:102010000394FEF739FB07B030BD0000001002400A
:10202000000021100008004810B586B01421684651
:10203000FEF713F9214800241F490594C0E9001454
:102040007F218160FF21C0E9031444618461C46180
:10205000FFF71CFA08B1FEF7EBF910208DF800002D
:102060000F208DF801008DF802400394002269468C
:1020700012480494FFF702FB08B1FEF7D9F90120DA
:102080008DF8140004208DF8150016208DF8160028
:1020900013208DF81700002205A90848FFF786FADB
:1020A00008B1FEF7C5F90548FFF7B8F9002801D0D7
:1020B000FEF7BEF906B010BD00280040B0020020B7
:1020C0000D4810B50B4901604FF4E131416000212A
:1020D00081600C22C160C0E904128161C1610162AA
:1020E0004162FFF71FFC002803D0BDE81040FEF757
:1020F0009FB910BD00380140D40200200D4810B532
:102100000B4901604FF4E1314160002181600C22F4
:10211000C160C0E904128161C16101624162FFF7DF
:1021200001FC002803D0BDE81040FEF781B910BDC6
:10213000004400404C0300200D4810B50B490160DD
:102140004FF4E1314160002181600C22C160C0E99F
:1021500004128161C16101624162FFF7E3FB002863
:1021600003D0BDE81040FEF763B910BD0048004041
:10217000C4030020FEE770470907090E002806DAAD
:1021800000F00F0000F1E02080F8141D704700F10E
:10219000E02080F800147047704700002DE9F041FE
:1021A000444C05468846E0680026810728680DD023
:1021B000E16801F00301814216D1A8B1E0686968C5
:1021C000C0F30210401C88420ED120E0012804D048
:1021D000022805D0032807D108E02168890701E01B
:1021E00021684905002907DB01265FE02168890392
:1021F00002D421684903F5E7E1686A686FF00F03CC
:1022000021F0730103EB021211430143E1602068E6
:1022100020F080602060FEF721FB074605E000BF4C
:10222000FEF71CFBC01B022837D820680001F7D43A
:10223000B8F1000F18D0B8F1010F1ED0287D4FF073
:102240007E41400801EB4060A96840EA0120216915
:10225000194A114008432061206840F080602060E6
:10226000FEF7FCFA07461AE0A868E96800020909C7
:1022700040EA41402169114AEBE7288A10494008A9
:1022800001EB4050A96840EA012021690D4AE0E7CE
:10229000FEF7E4FAC01B022801D9032606E02068F5
:1022A0000001F5D52069A969084320613046BDE8E1
:1022B000F081000000100240FF80FFF9FF80FDFF69
:1022C0000000E0FFFF809FFF2DE9F0413D4C0646F6
:1022D0008846E0680025810730680DD0E16801F08C
:1022E0000301814216D1A8B1E0687168C0F3021001
:1022F000401C88420ED120E0012804D0022805D0DD
:10230000032807D108E02168890701E02168490511
:10231000002907DB012551E02168890302D42168E7
:102320004903F5E7E16872686FF00F0321F073016C
:1023300003EB021211430143E160206820F080505A
:102340002060FEF78BFA074605E000BFFEF786FA2D
:10235000C01B022829D820688000F7D4B8F1000FEC
:1023600015D0307C4FF07E41400801EB4060B168F1
:1023700040EA01206169144A114008436061206805
:1023800040F080502060FEF769FA07460FE0B06821
:10239000F1680002090940EA414061690B4AEBE734
:1023A000FEF75CFAC01B022801D9032506E020686D
:1023B0008000F5D560697169084360612846BDE811
:1023C000F081000000100240FF80FFF9FF80FDFF58
:1023D000F8B51C4D06460024A86DC00002D5FEF7D6
:1023E00001FB0DE0A86D40F08050A865A86D00F0DD
:1023F00080500090FEF7F6FAA96D21F08051A96592
:10240000B0F5007F04D0802E07D94FF003040AE016
:10241000802E08D9A02E01D804E001D1022402E0C8
:10242000702E00D101240848016821F007012143E2
:102430000160006800F00700A04201D00120F8BD53
:102440000020F8BD0010024000200240010901EB0D
:10245000810100F00F0000EB4100C0B27047002284
:10246000014602E00A39C9B2521C0A29FAD2100701
:1024700041EA10607047000070B504460068C1680A
:10248000490614D44FF0FF31C160FEF7E7F9054665
:102490004FF47A7607E000BFFEF7E0F9401BB04248
:1024A00001D9032070BD2068C0684006F4D5002023
:1024B00070BD000070B50E46054600240FE01420E4
:1024C000FEF7D4F8324629460748FFF7ABFB2870E1
:1024D0001420FEF7CBF82820FEF7C8F8641CB4429D
:1024E000EDDB287870BD0000D40200202DE9F04F0C
:1024F000AFB05021FE48FDF7B0FE642114A8FDF7EF
:10250000ACFE642114A8FDF7A8FEF9486421503000
:10251000FDF7A3FEF6486421B430FDF79EFE64216A
:10252000F448FDF79AFEF24837213738FDF795FE5B
:10253000DFF8C4A3F14D00244FF02208CAF82C4064
:1025400085F872806C6501F0BBFA0C20FEF78EF8FE
:1025500050216846FFF7AEFFE9A16846FDF788FE07
:10256000E9464FF090474FF0200B20B1E6A14846D6
:10257000FDF77EFE58B1E4A16846FDF779FE00281C
:102580006DD0DFA16846FDF773FEE8B367E0462033
:10259000FEF76CF86846FDF77DFE82B26946D748C3
:1025A000FFF726FC4620FEF761F800268C20FEF798
:1025B0005DF8012220213846FEF74BF94FF4FA70FE
:1025C000FEF754F8002220213846FEF742F9642035
:1025D000FEF74CF8761C042EE8DD002049460C542A
:1025E000401C5028FBDD0222C9A1C448FFF700FCB3
:1025F0002868016821F02001016085F872B0286820
:10260000016841F0200100E006E001604622C14976
:10261000BA48FFF7EDFB20E04620FEF727F86846B2
:10262000FDF738FE82B26946B448FFF7E1FB462069
:10263000FEF71CF8002049460C54401C5028FBDDD6
:102640000222B3A1AD48FFF7D3FB4622B149AB4804
:10265000FFF7CEFB0F20FEF709F885F87280AE4E2B
:10266000AEA1706DFDF704FECAF8100028B9ABA149
:102670006846FDF7FDFD00287DD0A1A16846FDF765
:10268000F7FD002877D1A0A16846FDF7F1FD0028ED
:1026900071D13220FDF7EAFF0C20FDF7E7FF286833
:1026A000016821F02001016085F872B02868016896
:1026B00041F02001016037229AA19048FFF798FB72
:1026C0000220FDF7D3FFB346706DFDF7E3FD82B244
:1026D000A2A18A48FFF78CFB02228DA18748FFF751
:1026E00087FB0A20FDF7C2FF2622A6A18348FFF739
:1026F0007FFB0A20FDF7BAFF022285A17F48FFF782
:1027000077FB1E20FDF7B2FF022281A17B48FFF775
:102710006FFB1420FDF7AAFF50216846FFF7CAFEA1
:1027200000263220FDF7A2FF012220213846FEF7C5
:1027300090F83220FDF79AFF002220213846FEF75C
:1027400088F86420FDF792FF761C042EE9DD2868E6
:10275000016821F020010160202085F872002868BE
:10276000016841F0200101606846FDF793FD82B2E7
:102770006946624800E0B6E0FFF73AFB684601F0C0
:1027800013FB8AA607463146FDF794FD01007DD074
:1027900057483738FDF785FD31460020FDF78AFDA3
:1027A0000100F4D052482F38FDF77BFD3146002060
:1027B000FDF780FD0100EAD04D482B382D90FDF744
:1027C00070FD31460020FDF775FD01005ED04848E0
:1027D0001C38FDF766FD31460020FDF76BFD01005A
:1027E00054D043481238FDF75CFD31460020FDF718
:1027F00061FD01004AD03E480838FDF752FD3146E0
:102800000020FDF757FD010040D03948001FFDF7BB
:1028100048FD384601F07CF92D98FDF73BFD564602
:102820001321C6E9090181B22D9801F099F9B0810F
:10283000024631485FA12C3001F006F82E492C48A1
:102840002C3137380A78C37EA0F110099A424DD056
:102850004A78037F9A4249D08A78437F9A4245D08A
:10286000C978807F814241D01E20FDF7FFFE022201
:1028700027A12248FFF7BCFA0A20FDF7F7FE022243
:1028800023A11E48FFF7B4FA0A2000E0A6E0FDF7F6
:10289000EDFE0F2248A11948FFF7AAFA00251321DF
:1028A00049A000F089F96D1C012DF8DDB481C9F84B
:1028B0001040C9F81440C9F82B40C9F82F40A9F8B6
:1028C00033400F2109F113052D98FDF7C6FCC5F81B
:1028D0000540C5F82240C5F826406C85EC622C63A3
:1028E0000A20FDF7C3FE2FB000F062B978E00000C7
:1028F000B3070020CB08002000000020C403002004
:1029000072656164790000004572726F72000000A8
:102910000A0D000098400008D40200202B524356B4
:102920003D000000D09FD0BED0B4D0B3D0BED18285
:10293000D0BED0B2D0BAD0B020D0BA20D0BFD180D3
:10294000D0B8D0BDD18FD182D0B8D18E20D0B4D064
:10295000B0D0BDD0BDD18BD1850A0D00D09FD0BEE7
:10296000D0BBD183D187D0B5D0BDD0B8D0B520D021
:10297000B4D0B0D0BDD0BDD18BD1852E2E2E0A0DB6
:1029800000000000D09FD180D0B8D0BDD0B8D0BC5E
:10299000D0B0D0B5D0BCD18BD0B520D0B4D0B0D0D1
:1029A000BDD0BDD18BD0B53A0A0D00002C3A3B0DFD
:1029B0000A00000025750000D09ED188D0B8D0B1A3
:1029C000D0BAD0B0210A0D0041542B53454E443D9E
:1029D000312C372C4572726F720D0A00002082E78D
:1029E0001E20FDF743FE4FF47A773B460222AFF2FA
:1029F000E0014248FFF760F90A20FDF737FE3B4649
:102A00000222AFF2F4013D48FFF756F94620FDF7E8
:102A10002DFE28223AA13948FFF7EAF9434902205E
:102A200081F82500424981F8250000274FF42F7ACC
:102A300096F828103FA000F0BFF85046FDF716FEAC
:102A40007F1C012FF4DD0A216846FDF706FC2820D3
:102A5000FDF70CFE2868016821F0200101602020AC
:102A600085F872002868016841F0200101600A20A1
:102A7000FDF7FCFD322234A12048FFF7B9F9306997
:102A8000502104706846FDF7E8FB64213B48FDF7E0
:102A9000E4FB2820CBF84C40FDF7E8FD282238A1C4
:102AA0001648FFF7A5F90F20FDF7E0FD46223F4944
:102AB0001248FFF79DF91E20FDF7D8FDC9F8104018
:102AC000C9F81440C9F82B40C9F82F40A9F8334081
:102AD0000F2109F113062D98FDF7BFFBC6F805403D
:102AE000C6F82240C6F826407485F462346332206A
:102AF000FDF7BCFD404685F87280F4E6C403002073
:102B0000D09FD0B0D0BAD0B5D18220D0BFD180D0A4
:102B1000BED188D0B5D0BB20D183D181D0BFD0B5B4
:102B2000D188D0BDD0BE0A0D000000003C040020BA
:102B30005C05002041542B53454E443D312C372C2D
:102B400072656164790D0A00D0BED187D0B8D18892
:102B5000D0B0D0B5D182D181D18F20D0B1D183D1A5
:102B600084D0B5D18020D0BFD180D0B8D0B5D0BC72
:102B7000D0BDD0B8D0BAD0B00A0D00006708002090
:102B8000D091D183D184D0B5D18020D183D181D0CF
:102B9000BFD0B5D188D0BDD0BE20D0BED187D0B8EF
:102BA000D188D0B5D0BD0A0D0000000098400008C3
:102BB00030BCBDE8C08F704770B50D460646002496
:102BC0000BE01420FDF752FD2A4631460448FFF77A
:102BD000CBF81420FDF74AFD641CAC42F1DB70BD5C
:102BE000D402002010B504461E210948FDF735FB2C
:102BF000E3B208A23221064800F00EFE0448FDF7B9
:102C000049FB81B2BDE81040014800F013BC000050
:102C1000DA00002041542B414444524553533D2592
:102C2000640D0A0010B5034606A23221094800F0DF
:102C3000F3FD0848FDF72EFB81B2BDE810400548C2
:102C400000F0F8BB41542B42414E443D25640D0A2F
:102C500000000000A800002010B5034606A23221A3
:102C60000A4800F0D9FD0948FDF714FB81B2BDE820
:102C70001040064800F0DEBB41542B4E4554574FE0
:102C8000524B49443D25640D0A000000F800002025
:102C90000EB506A207CA8DE807006846FDF7FAFAE6
:102CA00081B2684600F0C6FB0EBD000041542B4DBA
:102CB0004F44453D300D0A000EB55BB252B249B2E9
:102CC0008DE80E00034607A232210D4800F0A4FD56
:102CD0000B48FDF7DFFA03B081B209485DF804EB59
:102CE00000F0A8BB41542B504152414D4554455230
:102CF0003D25642C25642C25642C25640D0A0000D8
:102D00004400002000B58DB0302204496846FDF72C
:102D10008BFA6846FDF7BEFA0DB000BDC43D000851
:102D2000FDF7A2BD30B5B9B0442122A8FDF795FA50
:102D3000142133A8FDF791FA88216846FDF78DFA32
:102D4000FDF758FE1A4850F8901F21F01801016055
:102D50000620012122900D0224911020CDE925505A
:102D600002202C90CDE92D010A212F910721CDE9D8
:102D70003010329022A8FEF71FF90F200024339064
:102D80000320CDE934043694042133A83794FEF7A8
:102D900011F808480F9400900E94219510946846FD
:102DA000FDF730FE6800FDF7E9FD39B030BD0000E9
:102DB00000100240070002000D48016841F4700154
:102DC00001600C48016841F001010160002181604F
:102DD0000268094B1A4002608214C260026822F441
:102DE0008022026081610249C00380390860704717
:102DF00088ED00E000100240FFFFF6EA2DE9F04FF9
:102E00009DB050219F48FDF728FA642103A8FDF7E3
:102E100024FA642103A8FDF720FA9A48642150306F
:102E2000FDF71BFA97486421B430FDF716FA6421C8
:102E30009548FDF712FA934837213738FDF70DFA18
:102E4000DFF848924FF0000A64219148C9F82CA09D
:102E5000FDF703FA00F00CFEDFF83482DFF834B23D
:102E6000002008F2172518F80010464600297BD0EC
:102E700099F800104C460029F9D0DBF800100A68D8
:102E800022F020020A6020218BF87210DBF800008B
:102E9000016841F02001016046227F497D48FEF72C
:102EA000A7FF5020FDF7E2FB36227CA17948FEF710
:102EB0009FFF5020FDF7DAFB3220FDF7D7FB0E22F3
:102EC00084A17448FEF794FF2078A146801E81B249
:102ED00060616F4800F044FE20816D486169FDF734
:102EE00055FA80B260810221A161E16122890096D8
:102EF000CDE9012063486369B0467AA2322150309F
:102F00000E3300F089FC208C5E4982B2503161485A
:102F1000FEF72AFF1420FDF7A9FB02226CA15D48F1
:102F2000FEF766FF0A20FDF7A1FB302273A1594886
:102F3000FEF75EFF0A20FDF799FB1D227CA1554894
:102F4000FEF756FF0A20FDF791FB4E485030FDF783
:102F5000A1F9206264214E48FDF77FF984F800A0B2
:102F600000200446009000E086E0285D38B3454824
:102F700099F820105030FFF71FFE4FF47A70FDF7DC
:102F800075FB00264FF090476420FDF76FFB012290
:102F900020213846FDF75DFC6420FDF767FB002229
:102FA00020213846FDF755FC6420FDF75FFB761CB9
:102FB000042EE9DB334864215030FDF74EF9641CE0
:102FC000642CD0DB0520FDF751FB614861A1406D09
:102FD000FDF74EF900282DD03B225FA12D48FEF7CA
:102FE00007FF0120FDF742FB0020414654460C54E8
:102FF000401C5028FBDB00202C54401C6428FBDBC9
:103000000A20FDF733FB362262A12248FEF7F0FECC
:103010001C4889F8004064215030C9F81440FDF77D
:103020001CF9194864216438FDF717F96421164822
:10303000FDF713F91420FDF719FB282263A11548A9
:10304000FEF7D6FE1E20FDF711FB4622124911485D
:10305000FEF7CEFEDBF800100A6822F020020A60BC
:1030600020218BF87210DBF80000016841F020018C
:1030700001600098401CF6E6401C6428FBDB1DB094
:1030800000F0BAB8B3070020CB08002000000020F1
:10309000EC050020C403002098400008D098D0BD63
:1030A000D0B8D186D0B8D0B0D0BBD0B8D0B7D0B01F
:1030B000D186D0B8D18F20D0BFD0B5D180D0B5D0F7
:1030C000B4D0B0D182D187D0B8D0BAD0B02E2E2E05
:1030D0000A0D0000D094D0B0D0BDD0BDD18BD0B5FA
:1030E0003A0A000041542B53454E443D312C25648F
:1030F0002C25733A25643B25640D0A00D09ED182AD
:10310000D0BFD180D0B0D0B2D0BAD0B020D181D091
:10311000B8D0BCD0B2D0BED0BBD0BED0B220D0B31D
:10312000D0BED182D0BED0B2D0B00A0D0000000017
:10313000D0BED182D0BFD180D0B0D0B2D0BBD18FE1
:10314000D0B5D182D181D18F2E2E2E0A0D00000054
:10315000D40200202B4F4B00D09ED182D0BFD18013
:10316000D0B0D0B2D0BAD0B020D0B4D0B0D0BDD0D2
:10317000BDD18BD18520D0BFD180D0BED188D0BB6E
:10318000D0B020D183D181D0BFD0B5D188D0BDD02F
:10319000B00A0D00D0BED187D0B8D188D0B0D0B59C
:1031A000D182D181D18F20D0B1D183D184D0B5D17A
:1031B0008020D0BFD0B5D180D0B5D0B4D0B0D1822E
:1031C000D187D0B8D0BAD0B00A0D0000D091D18349
:1031D000D184D0B5D18020D183D181D0BFD0B5D119
:1031E00088D0BDD0BE20D0BED187D0B8D188D0B5D0
:1031F000D0BD0A0D0000000030BCBDE8C08F90F8C3
:103200002410C90706D001684A68836A22F4003294
:103210001A434A6090F82410890706D501684A6865
:10322000C36A22F480321A434A6090F82410490796
:1032300006D501684A68036B22F480221A434A606B
:1032400090F82410090706D501684A68436B22F4F8
:1032500000421A434A6090F82410C90606D5016856
:103260008A68836B22F480521A438A6090F8241093
:10327000890606D501688A68C36B22F400521A4396
:103280008A6090F82410490611D501684A68036CD9
:1032900022F480121A434A60016CB1F5801F06D1F6
:1032A00001684A68436C22F4C0021A434A6090F8ED
:1032B0002410090606D501684A68806C22F40022B1
:1032C00002434A607047F8B5002604464667FDF79A
:1032D000C5FA0546206800686FF07E47000708D5EC
:1032E0002B4600224FF400112046009700F04DFAC3
:1032F00060B92068006840070AD52B4600224FF4C9
:1033000080012046009700F040FA08B10320F8BD84
:10331000202084F8710084F8720084F87060002026
:10332000F8BD10B5806A0021A0F85A10A0F852101C
:10333000FEF754FA10BD70B5846A94F87100002548
:10334000212808D120688068000604D5A4F85250CE
:10335000204600F066F894F87200222808D1206810
:103360008068400604D5A4F85A50204600F049F879
:10337000606F40F0100060672046FEF72FFA70BDC6
:1033800010B50146806A09680968890614D40021CD
:10339000A0F85A1001680A6822F480720A60016875
:1033A0008A6822F001028A6001688A6822F040027D
:1033B0008A60202180F87210FEF77CFC10BD10B5E9
:1033C000806AFEF778FC10BD10B50146806A096876
:1033D000096889060DD40021A0F8521001688A6896
:1033E00022F080028A600068016841F040010160BB
:1033F00010BDFEF731FD10BD10B5806AFEF72DFD42
:1034000010BD01680A6822F490720A6001688A6837
:1034100022F001028A60202180F8721000210166EA
:10342000704701680A6822F0C0020A60202180F813
:103430007110704730B5054695B00C461420FDF765
:1034400015F9224629460848FEF78EFC6420FDF750
:103450000DF90A2269460448FEF7E4FB2820FDF72F
:1034600005F915B030BD0000D40200202DE9F0416F
:103470000446016880682369E6691843636910257A
:10348000002733431843954A0B68954E3340034356
:103490000B6020684168E36821F4405119434160A2
:1034A0002168A069914201D0236A18438B6823F4F4
:1034B000306303438B608B4B21688B4899420DD15D
:1034C000D0F8880010F0030006D001285AD0022856
:1034D00056D0032859D157E0012556E0834B994235
:1034E0000BD1D0F8880010F00C0047D0042849D048
:1034F000082845D00C2848D146E07D4B99420BD195
:10350000D0F8880010F0300038D010283AD02028A9
:1035100036D0302839D137E0764B99420BD1D0F8EC
:10352000880010F0C00029D040282BD0802827D058
:10353000C0282AD128E0704B99420ED1D0F88800DB
:1035400010F440701AD0B0F5807F1BD0B0F5007F2A
:1035500016D0B0F5407F18D116E0914215D1D0F8C1
:10356000880010F4406009D0B0F5806F0AD0B0F543
:10357000006F05D0B0F5406F07D105E0002504E0ED
:10358000022502E0042500E008255C4B00264FF4EC
:10359000004091423DD135B1022D07D0042D07D016
:1035A000082D10D107E0FDF791FC03E0184602E07A
:1035B000FDF7B0FCA8B3626802EB4201814202D879
:1035C000B0EB023F01D9012775E0DFF834815DB12E
:1035D000022D0CD0042D13D0082DF4D1500829054C
:1035E000401846F1000105E0FDF770FC0AE05008C4
:1035F0004449F5E70023FCF7E3FDA0F5407156E0F0
:10360000FDF788FC6268010E03025008181871412A
:10361000F0E7E1694FF6EF7881422FD1092DD2D240
:1036200000E048E0DFE805F0060920052305050570
:103630002600C8E7FDF74AFC01E0FDF759FC410010
:10364000D4F8040001EB5001B1FBF0F080B2A0F11E
:1036500010014145B7D84FF6F0710140C0F3420068
:1036600001432068C16026E027496068EAE7FDF76A
:1036700051FCE4E74FF480316068E3E7092DA2D202
:10368000DFE805F006091E052205050525009AE775
:10369000FDF71CFC01E0FDF72BFC0146606801EB27
:1036A000500100BFB1FBF0F080B2A0F11001414524
:1036B00089D82168C860266638466666BDE8F0810C
:1036C000606803EB5001EDE7FDF724FCE5E7616876
:1036D00000EB5100B0FBF1F0E6E700000080004095
:1036E000F369FFEF00380140001002400044004041
:1036F00000480040004C0040005000400024F4000E
:10370000FFFC0F00000024F40048E80190F871105D
:10371000212910D1B0F8521071B1C16C026809882A
:10372000C1F308011185C16C891CC164B0F8521045
:10373000491EA0F85210704701680A6822F0800202
:103740000A600068016841F040010160704790F82C
:10375000711021290DD1B0F8521059B1C16C4A1C19
:10376000C264026809781185B0F85210491EA0F8A9
:103770005210704701680A6822F080020A600068EF
:10378000016841F04001016070472DE9F041984621
:1037900017460E460446069D1DE0681C1BD02DB141
:1037A000FDF75CF8A0EB0800A84214D92068016876
:1037B00021F4D07101602068816821F001018160ED
:1037C000202084F8710084F87200002084F87000D2
:1037D0000320BDE8F0812068C06936EA000004D00B
:1037E0000020B842D9D00020F3E70120F9E700001B
:1037F0000148FDF7F5BF0000D40200200148FDF7A5
:10380000EFBF00004C0300200148FDF7E9BF0000B6
:10381000C4030020FEE700000FB41CB502460020E0
:1038200007AC00290BD0491ECDE90021054B6A46A3
:103830002146069800F02CF8009A002111701CBC5B
:103840005DF814FB4F3A00080FB4084B10B504A9FB
:1038500002AA039800F01CF8044602A9002000F018
:1038600001F9204610BC5DF814FB0000653A000821
:1038700002E008C8121F08C1002AFAD17047704739
:10388000002001E001C1121F002AFBD17047000097
:103890002DE9FF4F8BB09A460F460546002606E0FD
:1038A00025280BD052460D9990476D1C761C287820
:1038B0000028F5D10FB0304600F0C6B80024A0466D
:1038C0000122604900E0044315F8013F203B02FA61
:1038D00003F00842F7D128782E2817D115F8010FE8
:1038E00044F004042A280ED06FF02F022878A0F1AB
:1038F000300109290AD808EB880102EB410100EBED
:1039000001086D1CF2E757F8048B6D1C28786928B4
:103910003ED006DC0028CDD063280BD0642804D12B
:1039200036E0732810D075284BD052460D99904739
:10393000761C85E017F8040B8DF8000000208DF848
:103940000100E946012003E057F8049B4FF0FF30E7
:1039500061074FF0000401D40AE0641C44450DDA0D
:103960008442FADB19F804100029F6D106E0641C41
:103970008442FCDB19F804100029F8D1264404E045
:1039800019F8010B52460D999047641EF8D257E082
:1039900001CF4FF00A0B002802DA40422D2102E04D
:1039A000210504D52B218DF82410012103E0E10726
:1039B00005D02021F7E70DF1200908910CE0002146
:1039C000F9E701CF4FF00A0BF9E75946FCF794FCF1
:1039D00001F1300209F8012D0028F6D1ADEB090004
:1039E00000F1200B600701D44FF00108D84502DD3B
:1039F000A8EB0B0000E000208046002406E009A8A8
:103A00005246005D0D999047641C761C08988442CC
:103A1000F5DB04E0302052460D999047761CB8F152
:103A20000001A8F10108F5DC05E019F8010B524688
:103A30000D999047761CBBF10001ABF1010BF4DC52
:103A40006D1C34E70928010030BCBDE8C08F4A680E
:103A5000002A06D00A68531C0B6010704868401E8C
:103A6000486070470A68531C0B6010707047000074
:103A7000F0B5104800F0A8F801281AD10D4C0E4FEF
:103A8000E41E0E4EE07838702078401C207000252F
:103A900000E06D1C074800F097F808B9B542F8D36C
:103AA000B54206D22078E1783954401C20700025B8
:103AB000F0E7F0BD03000020EC050020400D0300FE
:103AC000F0B5104800F0A0F801281AD10D4C0E4FA7
:103AD000A41E0E4EA07838706078401C60700025DF
:103AE00000E06D1C074800F08FF808B9B542F8D324
:103AF000B54206D26078A1783954401C6070002528
:103B0000F0E7F0BD0200002050060020400D030049
:103B100010B5002821D0114B0022001F196803E0C6
:103B2000814203D80A4649680029F9D152B1136885
:103B3000841A9C4204D1006818441060104602E0C8
:103B4000506000E0186039B102680B1A934203D14B
:103B50000B681A4402604968416010BD3C000020B7
:103B6000F0B50022134600282CD04FF6FF7448F21F
:103B7000050591B1D60B04EA42070278DA4002F05B
:103B800001023A435B1C072B03DD491E002389B267
:103B9000401C002EEDD06A40EBE70020D10B04EA78
:103BA000420200D06A40401C1028F7DB00204FF48E
:103BB00000410123114201D0184380B249104FEA5D
:103BC0004303F7D1F0BD000030B50E4A0C49D4884C
:103BD00031F814504FF6FF739D420ED031F8144067
:103BE0000470D08821F81030401C80B2D080642846
:103BF00001D10020D080012030BD002030BD000068
:103C0000840100200000002030B50E4A0C49948841
:103C100031F814504FF6FF739D420ED031F8144026
:103C20000470908821F81030401C80B29080642885
:103C300001D100209080012030BD002030BD000067
:103C4000B4060020000000200EB506A207CA8DE8C9
:103C500007006846FCF71EFB81B26846FFF7EAFBE7
:103C60000EBD000041542B52455345540D0A00002F
:103C700064212E48FCF7F1FAFCF7FEFDFFF752F83D
:103C8000FEF786F9FEF746F9FEF738FAFEF718FA5E
:103C9000FEF752FAFEF7C8F9FEF7E2F84622244989
:103CA0002448FEF7A5F80A20FCF7E0FC442222494C
:103CB0002048FEF79DF80A20FCF7D8FC46221C4954
:103CC0001C48FEF795F84FF47A742046FCF7CEFCBA
:103CD0004FF09045012220212846FCF7BAFD6010E4
:103CE000FCF7C4FC002220212846FCF7B2FD204648
:103CF000FCF7BCFC0D4A00204FF6FF71B2F1C80280
:103D000022F81010401C80B26428F9D307496422BD
:103D1000C8390848FDF786FF0520FCF7A7FC00BF5F
:103D2000FEF7E4FBFFF76AF8FAE700004C02002018
:103D300098400008C403002050400008F0B50B3044
:103D4000154D20F007010024144A0FE003688B4250
:103D50000BD38B4205D95E1A43184768C3E9006745
:103D600000E04368136002C004E0021D10680028F0
:103D7000ECD12046002802D1286808B10020F0BD0F
:103D8000064A07481060074A121A22F00702C0E9E3
:103D9000002401202860D7E7400000203C000020DC
:103DA00034090020300B002070B50546FCF772FA8C
:103DB000401CFFF7C3FF040002D02946FCF771FA4C
:103DC000204670BD41542B4350494E3D304431355F
:103DD000333844373843363132384139393838335B
:103DE0003244424331304345393232330D0A000008
:103DF0000000000000C1814001C0804101C080413D
:103E000000C1814001C0804100C1814000C18140AA
:103E100001C0804101C0804100C1814000C181409A
:103E200001C0804100C1814001C0804101C080418A
:103E300000C1814001C0804100C1814000C181407A
:103E400001C0804100C1814001C0804101C080416A
:103E500000C1814000C1814001C0804101C080415A
:103E600000C1814001C0804100C1814000C181404A
:103E700001C0804101C0804100C1814000C181403A
:103E800001C0804100C1814001C0804101C080412A
:103E900000C1814000C1814001C0804101C080411A
:103EA00000C1814001C0804100C1814000C181400A
:103EB00001C0804100C1814001C0804101C08041FA
:103EC00000C1814001C0804100C1814000C18140EA
:103ED00001C0804101C0804100C1814000C18140DA
:103EE00001C0804100C1814001C0804101C08041CA
:103EF00000C1814000C0C101C30302C2C60607C79A
:103F000005C5C404CC0C0DCD0FCFCE0E0ACACB0B09
:103F1000C90908C8D81819D91BDBDA1A1EDEDF1F39
:103F2000DD1D1CDC14D4D515D71716D6D21213D329
:103F300011D1D010F03031F133F3F23236F6F737D9
:103F4000F53534F43CFCFD3DFF3F3EFEFA3A3BFBC9
:103F500039F9F83828E8E929EB2B2AEAEE2E2FEF79
:103F60002DEDEC2CE42425E527E7E62622E2E323E9
:103F7000E12120E0A06061A163A3A26266A6A76719
:103F8000A56564A46CACAD6DAF6F6EAEAA6A6BAB89
:103F900069A9A86878B8B979BB7B7ABABE7E7FBFB9
:103FA0007DBDBC7CB47475B577B7B67672B2B373A9
:103FB000B17170B050909151935352929656579759
:103FC000559594549C5C5D9D5F9F9E5E5A9A9B5B49
:103FD00099595898884849894B8B8A4A4E8E8F4FF9
:103FE0008D4D4C8C44848545874746868242438369
:103FF0004181804041542B4352464F503D31300D5A
:104000000A000000000000000000000000000000A6
:104010000102030406070809A0860100400D030001
:10402000801A060000350C0040420F0080841E00FC
:1040300000093D0000127A000024F40000366E01F1
:104040000048E801006CDC020000000001020304EB
:10405000D09ED0B6D0B8D0B4D0B0D0B5D18220D117
:1040600080D0B5D0B6D0B8D0BC20D0BFD180D0B829
:10407000D0B5D0BCD0BDD0BE2DD0BFD0B5D180D0B2
:10408000B5D0B4D0B0D182D187D0B8D0BAD0B02E0C
:104090002E2E0A0D000000003D3D3D3D3D3D3D3DC5
:1040A0003D3D3D3D3D3D3D3D3D3D3D3D3D3D3D3D40
:1040B0003D3D3D3D3D3D3D3D3D3D3D3D3D3D3D3D30
:1040C0003D3D3D3D3D3D3D3D3D3D3D3D3D3D3D3D20
:1040D0003D3D3D3D3D3D3D3D3D3D3D3D0A0D0000ED
:1040E0000041000800000020440000007038000873
:1040F0004441000844000020EC0E00008038000815
:1041000000000000000000000000000000000000AF
:10411000000000000000000000000000000000009F
:10412000000000000000000000000000000000008F
:104130000000000000093D00000000000000000039
:04414000000000007B
:040000050800018965
:00000001FF
